:100000000C94C0010C94DD010C94DD010C94DD0115
:100010000C94DD010C9417020C94DD010C94DD01AD
:100020000C94DD010C94DD010C94DD010C94DD01D8
:100030000C94DD010C94DD010C94DD010C94DD01C8
:100040000C94080A0C94DD010C94DD010C94DD0184
:100050000C9424090C94E2080C94DD010C94DD014D
:100060000C94DD010C94DD010C94DD010C94DD0198
:100070000C94DD010C94DD010C94DD01507265736C
:1000800073206120627574746F6E206F7220277305
:10009000272F27532720746F207374617274206197
:1000A000206E65772067616D650047414D45204FA3
:1000B0005645520043535345323031302F3732309A
:1000C000312041322062792052756968616E205773
:1000D000616E67202D2034383031383632330A00D3
:1000E000205C24242020205C242420202020205C4C
:1000F0002420202020205C24242020205C24242074
:100100002020202020205C24242020205C24242067
:10011000205C24242424242424205C242420202043
:1001200020202020205C242424242424007C20243B
:100130002420207C202424202020205C242424200F
:1001400020207C20242420207C20242420202020E7
:1001500020207C20242420207C202424205C242493
:1001600020202020205C7C202424202020202020EF
:10017000205C2424202020202424007C20242420EF
:10018000207C2024242020205C24242024242020BF
:100190007C20242420207C20242420202020202097
:1001A0007C20242420207C2024247C20242424241B
:1001B000242424247C2024242020202020207C206F
:1001C00024245F5F2F202424007C20242424242442
:1001D00024242420205C24245C20202424207C202F
:1001E000242424242424245C2020202020207C205B
:1001F00024242424242424247C202424202020207B
:1002000024247C2024242020205C24247C202424DA
:1002100020207C202424007C202424202020202432
:1002200024205C24245C202F202024247C202424CF
:100230002020202024242020202020207C20242452
:100240002020202024247C20202424242424245CF6
:100250007C20202424242424245C7C202024242486
:100260002424245C007C2024245F5F7C2024247CC4
:100270002024242020207C2024247C2024245F5F30
:100280007C2024242020202020207C2024245F5F28
:100290007C202424202F2020202020205C20202FA0
:1002A0002020202020205C20202F20202020202003
:1002B0005C007C20202424242424245C7C2024240E
:1002C0002020207C2024247C202424242424242452
:1002D0005C2020202020207C20242420207C20241E
:1002E0002420205F5F5F5F5F5F202020205F5F5FD3
:1002F0005F5F5F202020205F5F5F5F5F5F00202FD8
:100300002020202020205C207C20205C2020207CBD
:1003100020205C7C202020202020205C2020202009
:100320002020207C20205C20207C20205C002020BD
:100330005F5F5F5F5F5F2020205F5F2020202020C5
:100340005F5F20205F5F5F5F5F5F5F202020202076
:10035000202020205F5F202020205F5F001B5B3F6C
:10036000323568001B5B3F32356C001B5B25646DCA
:10037000001B5B324A001B5B25643B256448000080
:1003800011241FBECFEFD8E0DEBFCDBF11E0A0E04B
:10039000B1E0E2E9FBE102C005900D92A63BB10796
:1003A000D9F722E0A6EBB1E001C01D92A33EB2074F
:1003B000E1F70E941E080C94C70D0C940000E8E6BB
:1003C000F0E08081826080838BB382608BBBECE63F
:1003D000F0E080818F6080831092B6010895809153
:1003E000B601181614F58091B7016FB7F89491E033
:1003F00009C0F901E954FE4F4081F901EA54FE4F6A
:1004000040839F5F292F30E04091B601042E000CFD
:10041000550B241735076CF39091B60191509093CA
:10042000B60166231CF4789408958FEF08951F9207
:100430000F920FB60F9211242F933F934F938F93E8
:100440009F93EF93FF9343B14F7080E026C090914C
:10045000B60194300CF5242F30E0082E02C03595FB
:1004600027950A94E2F720FF17C02091BB0130E0E6
:10047000082E02C0359527950A94E2F720FD0CC09E
:10048000E091B60191E09E0F9093B6010E2E000C04
:10049000FF0BE954FE4F80838F5F8430C0F240939E
:1004A000BB01FF91EF919F918F914F913F912F91C0
:1004B0000F900FBE0F901F9018951F93CF93DF934F
:1004C000182FD4E036C0CE3011F44FEF01C040E019
:1004D0002C2F30E0205E3F4F211B3109ED2FF0E043
:1004E000BF016250710981E090E0DC0102C0AA0FF7
:1004F000BB1F6A95E2F7BD016150710926233723BE
:10050000339702C0880F991FEA95E2F701972817E1
:10051000390729F4CE3010F44FE001C040EF6D2FC1
:100520008C2F0E94E805CF5F01C0CBE0C03158F2AC
:10053000DF5FD830D0F3DF91CF911F9108951F93E3
:10054000CF93DF93CDB7DEB728970FB6F894DEBF11
:100550000FBECDBF0E94240610E031C0E12FF0E0B5
:10056000EC5EFE4F908180E021C0282F30E0492FC3
:1005700050E0082E02C0559547950A94E2F740FFD7
:100580000DC0843010F44FE001C040EFE1E0F0E036
:10059000EC0FFD1FE20FF31F408307C0E1E0F0E026
:1005A000EC0FFD1FE20FF31F10828F5F8830E8F21F
:1005B000BE016F5F7F4F812F0E9407061F5F1031C2
:1005C00068F280E00E945D0228960FB6F894DEBFC4
:1005D0000FBECDBFDF91CF911F910895CF93DF93D1
:1005E000CDB7DEB728970FB6F894DEBF0FBECDBFEC
:1005F0000E94240680E009C0E1E0F0E0EC0FFD1F5E
:10060000E80FF11D9FEF90838F5F8830A8F3BE0144
:100610006F5F7F4F8DE00E94070680E009C0E1E038
:10062000F0E0EC0FFD1FE80FF11D95E590838F5F63
:100630008830A8F3BE016F5F7F4F8CE00E940706F1
:10064000BE016F5F7F4F8EE00E94070680E009C009
:10065000E1E0F0E0EC0FFD1FE80FF11D91E1908368
:100660008F5F8830A8F3BE016F5F7F4F8BE00E94E1
:100670000706BE016F5F7F4F8FE00E940706289636
:100680000FB6F894DEBF0FBECDBFDF91CF910895B6
:100690000E94EE021092C6011092C50108958823AF
:1006A00011F0853051F48091C2019091C3010196FF
:1006B0009093C3018093C20123C0813011F0843034
:1006C00051F48091C2019091C30102969093C301AD
:1006D0008093C20115C0833051F48091C201909182
:1006E000C30103969093C3018093C20109C0809116
:1006F000C2019091C30101979093C3018093C201FD
:100700008091C2019091C3010895DF92EF92FF9210
:100710000F931F93CF93DF93CDB7DEB728970FB614
:10072000F894DEBF0FBECDBFF82EFE01319688E0F3
:10073000DF011D928A95E9F700E0EE24E394B6C04C
:100740001FE0101B4091C5015091C601410F511D82
:100750009A01ADECBCEC0E94540A9695879596954B
:1007600087959C01220F331F220F331F820F931F87
:100770004817590709F099C09A010E94540A9695A2
:10078000879596958795813808F08FC02091BC0198
:10079000121790F020910101211770F0EF2DF0E079
:1007A000EE0FFF1F21E030E02C0F3D1FE20FF31F83
:1007B0009C01332731832083BC017727FB01EC5C4C
:1007C000FE4F20814F2D50E030E00F2C02C03595B8
:1007D00027950A94E2F720FF68C0440F551FE1E017
:1007E000F0E0EC0FFD1FE40FF51F2081318162174F
:1007F000730789F48093000140EFDF2CDD0C6D2D31
:10080000802F0E94E80561E06D0D40EF802F0E946F
:10081000E805109205018091BC01181721F0809124
:100820000101181311C080E00E944F039F938F9322
:1008300084E291E09F938F930E94C30A0F900F90E0
:100840000F900F90E12C2DC080910401181721F01A
:1008500080910201181311C081E00E944F039F9301
:100860008F9384E291E09F938F930E94C30A0F902D
:100870000F900F900F90E12C14C08091030118137A
:1008800010C083E00E944F039F938F9384E291E016
:100890009F938F930E94C30A0F900F900F900F9019
:1008A000E12C111102C0109200010F5F003108F419
:1008B00047CFEE2079F087E00E944F039F938F93FC
:1008C00084E291E09F938F930E94C30A0F900F9050
:1008D0000F900F9028960FB6F894DEBF0FBECDBFD5
:1008E000DF91CF911F910F91FF90EF90DF900895CE
:1008F000CF92DF92EF92FF920F931F93CF93DF93EC
:10090000C0E065C08FE08C1B4091C5015091C601CD
:10091000480F511D9A01ADECBCEC0E94540A8C01A9
:100920001695079516950795013808F053C0C8012C
:100930009801220F331F220F331F820F931F481776
:10094000590709F043C0D0E03EC0F801FF27EC5C36
:10095000FE4F808190E00D2E02C0959587950A94F8
:10096000E2F780FF2FC0CB3059F0CF3071F0CC30A0
:1009700089F0CE30A1F0CD30B9F4EE24EA9415C060
:100980000F2EF1E1EF2EF02D10C00F2EF1E1EF2E22
:10099000F02D0BC00F2EF5E5EF2EF02D06C00F2E1B
:1009A000F5E5EF2EF02D01C0E12C4E2DFD2EFF0CB4
:1009B0006F2D8C2F0E94E80561E06F0D4E2D8C2F5E
:1009C0000E94E805DF5FD43008F4BFCFCF5FC031AD
:1009D00008F498CFC091C501D091C6012196D0935B
:1009E000C601C093C501E0E0FFE047C0AE014F0F74
:1009F000511D9A01ADECBCEC0E94540A9695879566
:100A0000969587959C01220F331F220F331F820F6B
:100A1000931F4817590711F0FF5F2EC09A01ADECE4
:100A2000BCEC0E94540A9695879596958795DC01B3
:100A3000BB27AC5CBE4F1C911F70F1F019C0812F19
:100A400090E00C2E02C0959587950A94E2F780FFFE
:100A50000DC041E0DC2FDD0F6D2F80E00E94E80526
:100A600061E06D0F41E080E00E94E805CF5F01C0CA
:100A7000C0E0C43020F304C0EF5FE03108F4B6CF2B
:100A8000C0E086C01FE01C1B4091C5015091C6010B
:100A9000410F511D9A01ADECBCEC0E94540A969591
:100AA0008795969587959C01220F331F220F331F40
:100AB000820F931F4817590709F069C09A010E94D5
:100AC000540A7C01F694E794F694E794DE2C80E8CF
:100AD0008E1508F45CC0D0E057C0F701FF27EC5C2E
:100AE000FE4F808190E00D2E02C0959587950A9467
:100AF000E2F780FF48C080910001D8120CC010922C
:100B00000501111125C081E0809305010F2EF0EF42
:100B1000CF2EF02D2BC09091BC019117F0F0D8167C
:100B200009F187E00E944F039F938F9384E291E045
:100B30009F938F930E94C30A81E0809305010F90D9
:100B40000F900F900F900F2EFFE0CF2EF02D0EC0C4
:100B50000F2EF0EFCF2EF02D09C00F2EFFE0CF2E7D
:100B6000F02D04C00F2EFFE0CF2EF02D4C2D0D2FB9
:100B7000000F602F8C2F0E94E80561E0600F4C2D64
:100B80008C2F0E94E805DF5FD43008F4A6CFCF5F3A
:100B9000C03108F477CFDF91CF911F910F91FF9073
:100BA000EF90DF90CF9008958091C5019091C6019C
:100BB0008538924038F081E08093C4011092C301DF
:100BC0001092C20180E0089580E80E94770908959C
:100BD0001F93CF93DF938031B0F46830A0F4142FCB
:100BE000C62FD82F81E00E94A3096C2F677080E187
:100BF000689F900111248D2F8F70822B0E94A30972
:100C0000812F0E94A309DF91CF911F9108950F9327
:100C10001F93CF938031A0F48B01C82F83E00E94F3
:100C2000A3098C2F8F700E94A309C0E007C0F801B0
:100C3000EC0FF11D80810E94A309CF5FC830B8F38B
:100C4000CF911F910F9108958FE00E94A3090895FD
:100C50000E94E4050E94DF0140E060E07BE480E068
:100C600090E00E948F080E94E2090E942D0A0E94D3
:100C7000320A789408954F925F926F927F928F928A
:100C80009F92AF92BF92CF92DF92EF92FF92CF935B
:100C9000DF930E94BA090E94D9090E94BA090E94F2
:100CA000D00985E20E94C30964E070E08AE090E028
:100CB0000E94A9098EE293E09F938F930E94D90A24
:100CC00065E070E08AE090E00E94A9098EEF92E072
:100CD0009F938F930E94D90A66E070E08AE090E0CB
:100CE0000E94A90982EB92E09F938F930E94D90AF8
:100CF00067E070E08AE090E00E94A90985E692E052
:100D00009F938F930E94D90A68E070E08AE090E098
:100D10000E94A90987E192E09F938F930E94D90ACC
:100D200069E070E08AE090E00E94A90989EC91E016
:100D30009F938F930E94D90A6AE070E08AE090E066
:100D40000E94A9098BE791E09F938F930E94D90A93
:100D50006BE070E08AE090E00E94A9098DE291E0EA
:100D60009F938F930E94D90A6CE070E08AE090E034
:100D70000E94A90980EE90E09F938F930E94D90A68
:100D80006EE070E08AE090E00E94A90984EB90E0B8
:100D90009F938F930E94D90A0E949F020E94F80994
:100DA0004B015C0188EE93E09093C8018093C701EA
:100DB0008DB79EB744960FB6F8949EBF0FBE8DBFF9
:100DC000C0E00E94D608882339F08091DD0290911E
:100DD000DE020E94850A01C08FEF833799F18335C7
:100DE00089F10E94EF018F3F69F50E94F8096B01BC
:100DF0007C012B013C01481859086A087B082091A6
:100E0000C7013091C801ADECBCEC0E94540A969524
:100E1000879596958795A0E0B0E084159505A60581
:100E2000B70578F68C2F0E945D02D0E02196CF7135
:100E3000D078DD2324F42197C06EDF6F2196460120
:100E40005701BFCFDF91CF91FF90EF90DF90CF9010
:100E5000BF90AF909F908F907F906F905F904F90DA
:100E600008950E94BA090E9448030E94EF010E945F
:100E7000DD080895CF936EE070E08AE090E00E9474
:100E8000A9098AEA90E09F938F930E94D90A6FE0A4
:100E900070E08AE090E00E94A9098CE790E09F93BF
:100EA0008F930E94D90A0F900F900F900F9032C02D
:100EB0000E94D608882341F08091DD029091DE02E5
:100EC0000E94850AC82F01C0CFEF0E94EF0188233E
:100ED00061F00E94EF01813041F00E94EF01823009
:100EE00021F00E94EF01833049F41092C4010E9466
:100EF0003B060E9431070E9490070CC0C33711F0D7
:100F0000C33541F41092C4010E943B060E94310790
:100F10000E9490070E94EF018F3F51F2CF910895F8
:100F20008F929F92AF92BF92CF92DF92EF92FF92F9
:100F3000CF93DF930E94F8094B015C016FC00E94C0
:100F4000D608882341F08091DD029091DE020E9454
:100F5000850AC82F01C0CFEF0E94EF01D82F811161
:100F600004C083E090E00E948503C63611F0C634C9
:100F700021F483E090E00E948503D13021F482E0E7
:100F800090E00E948503C43611F0C43421F482E05D
:100F900090E00E948503D23021F481E090E00E942D
:100FA0008503C33711F0C33521F481E090E00E943E
:100FB0008503D33021F480E090E00E948503C136A0
:100FC00011F0C13421F480E090E00E94850380910B
:100FD000C401882321F00E94BA090E943A070E94A6
:100FE000F8096B017C012091C7013091C801ADEC7B
:100FF000BCEC0E94540A9695879596958795A50115
:101000009401280F391F411D511DC216D306E40655
:10101000F50620F00E947804460157010E94D4058D
:10102000882309F48CCFDF91CF91FF90EF90DF9070
:10103000CF90BF90AF909F908F9008950E94280608
:101040000E943B060E9431070E9490070E943A07C7
:10105000F9CFCF93C82F8A3019F48DE00E94290868
:101060009FB7907802C0992329F18091CA018F3FE0
:10107000D1F3F894E091C90181E08E0F8093C9010A
:10108000F0E0E553FE4FC0838091CA018F5F8093EB
:10109000CA018091C9018F3F11F41092C901E1EC9E
:1010A000F0E0808180628083992339F0789480E039
:1010B00090E005C081E090E002C080E090E0CF9138
:1010C00008958091DC028823E1F32FB72078F8940B
:1010D0008091CA023091DC0290E0831B91095AF49E
:1010E000E091CA028091DC02F0E0E81BF109E552D0
:1010F000FD4F80810AC0E091CA028091DC02F0E0DD
:10110000E81BF109E553FD4F80819091DC0291507D
:101110009093DC02222309F0789490E008951092D5
:10112000C9011092CA011092CA021092DC021092F8
:10113000DB024093BD01DC01CB01880F991FAA1F80
:10114000BB1F880F991FAA1FBB1F9C01AD01220F57
:10115000331F441F551F60E072E18AE790E00E9450
:10116000350ABA01A9014F5F5F4F6F4F7F4FDB0117
:10117000CA011AF40196A11DB11DB595A7959795C1
:10118000879501979093C5008093C400E1ECF0E04F
:1011900088E18083808180688083EDEDF2E086E0E5
:1011A00091E0938382839183808308959091DC0200
:1011B00081E0911101C080E008951092CA0210925E
:1011C000DC0208951F920F920FB60F9211242F93F5
:1011D0008F939F93EF93FF938091CA01882329F106
:1011E0008091C9012091CA0190E0821B91095AF4B3
:1011F000E091C9018091CA01F0E0E81BF109E653D2
:10120000FD4F90810AC0E091C9018091CA01F0E0D0
:10121000E81BF109E553FE4F90818091CA0181508E
:101220008093CA019093C60005C0E1ECF0E0808194
:101230008F7D8083FF91EF919F918F912F910F90E0
:101240000FBE0F901F9018951F920F920FB60F921E
:1012500011242F933F934F935F936F937F938F93BB
:101260009F93AF93BF93CF93EF93FF93C091C6002B
:101270008091BD01882349F08091CA018F3F29F0F8
:1012800060E070E08C2F0E9429088091DC028031A0
:1012900020F081E08093DB0218C0CD3009F4CAE071
:1012A000E091CA0281E08E0F8093CA02F0E0E5531C
:1012B000FD4FC0838091DC028F5F8093DC028091C0
:1012C000CA02803111F41092CA02FF91EF91CF91BE
:1012D000BF91AF919F918F917F916F915F914F914E
:1012E0003F912F910F900FBE0F901F90189594B1C2
:1012F000906B94B995B1906195B990E59CBD88309B
:1013000021F0803211F0823019F491E09DBD01C0CE
:101310001DBC803269F028F4883071F0803161F0B2
:101320000EC0803429F0803851F48CB581608CBDBA
:101330008CB582608CBD03C08CB581608CBD85B1DD
:101340008F7E85B908958EBD0DB407FEFDCF8EB595
:1013500008959F938F937F936F9386E793E09F9376
:101360008F930E94D90A0F900F900F900F900F90BB
:101370000F90089581E793E09F938F930E94D90A7D
:101380000F900F9008951F928F938BE693E09F9399
:101390008F930E94D90A0F900F900F900F9008958D
:1013A00084E693E09F938F930E94D90A0F900F9049
:1013B00008958DE593E09F938F930E94D90A0F9033
:1013C0000F9008951092BE011092BF011092C001BB
:1013D0001092C10116BC8CE787BD92E094BD83E0FA
:1013E00085BDEEE6F0E080818260808395BB089544
:1013F0008FB7282F2078F8946091BE017091BF01BB
:101400008091C0019091C101222309F07894089540
:101410001F920F920FB60F9211248F939F93AF9349
:10142000BF938091BE019091BF01A091C001B09186
:10143000C1010196A11DB11D8093BE019093BF0112
:10144000A093C001B093C101BF91AF919F918F91C3
:101450000F900FBE0F901F9018951092850010925C
:10146000840008951092B2000895052E97FB1EF493
:1014700000940E944C0A57FD07D00E94630A07FCA3
:1014800003D04EF40C944C0A50954095309521951C
:101490003F4F4F4F5F4F08959095809570956195A0
:1014A0007F4F8F4F9F4F0895A29FB001B39FC00100
:1014B000A39F700D811D1124911DB29F700D811D80
:1014C0001124911D0895A1E21A2EAA1BBB1BFD0138
:1014D0000DC0AA1FBB1FEE1FFF1FA217B307E40713
:1014E000F50720F0A21BB30BE40BF50B661F771F6B
:1014F000881F991F1A9469F760957095809590954B
:101500009B01AC01BD01CF010895CF93DF93EC01A6
:101510002B8120FF33C026FF0AC02F7B2B838E81B7
:101520009F8101969F838E838A8190E029C022FF4C
:101530000FC0E881F9818081082E000C990B00977B
:1015400019F420622B831AC03196F983E8830EC008
:10155000EA85FB85099597FF09C02B81019611F05B
:1015600080E201C080E1822B8B8308C02E813F8105
:101570002F5F3F4F3F832E83992702C08FEF9FEF4E
:10158000DF91CF910895A0E0B0E0E9ECFAE00C948F
:10159000A00DAE014B5F5F4FFA0161917191AF01F8
:1015A0008091DF029091E0020E94FF0AE2E00C9439
:1015B000BC0DA0E0B0E0EFEDFAE00C949E0DAE01A2
:1015C000495F5F4FDA016D917D91AD010DED12E044
:1015D000F80182819381DC0113962C911397286086
:1015E00013962C930E94FF0AD8011296ED91FC915C
:1015F00013972381277F2383E4E00C94BA0DABE09B
:10160000B0E0E5E0FBE00C94900D6C017B018A01F9
:10161000FC0117821682838181FFCCC1CE01019625
:101620003C01F6019381F70193FD859193FF819130
:101630007F01882309F4BAC1853239F493FD85917D
:1016400093FF81917F01853229F4B60190E00E94D9
:10165000F60CE7CF912C212C312CFFE1F315D8F0BB
:101660008B3279F038F4803279F08332A1F4232D73
:1016700020611DC08D3261F0803369F4232D21601B
:1016800016C0832D8260382EE32DE4603E2E2AC0E2
:10169000F32DF8601DC037FC2DC020ED280F2A3037
:1016A00040F08E32B9F436FC81C1232D2064322EF5
:1016B00019C036FE06C08AE0989E200D1124922E95
:1016C00011C0EAE02E9E200D1124222EF32DF0628F
:1016D0003F2E08C08C3621F4832D8068382E02C03E
:1016E000883641F4F70193FD859193FF81917F0145
:1016F0008111B3CF982F9F7D9554933028F40C5FC0
:101700001F4F9FE399830DC0833631F0833771F00B
:10171000833509F059C021C0F801808189830E5FAB
:101720001F4F88248394912C530113C02801F2E0A9
:101730004F0E511CF801A080B18036FE03C0692D08
:1017400070E002C06FEF7FEFC5010E94EB0C4C010F
:101750008201F32DFF773F2E16C0280122E0420EB2
:10176000511CF801A080B18036FE03C0692D70E0E5
:1017700002C06FEF7FEFC5010E94E00C4C01F32D1A
:10178000F0683F2E820133FC1BC0822D90E088164A
:101790009906B0F4B60180E290E00E94F60C2A941B
:1017A000F4CFF50137FC859137FE81915F01B601D9
:1017B00090E00E94F60C21102A9421E0821A9108F0
:1017C0008114910471F7E8C0843611F0893641F52F
:1017D000F80137FE07C060817181828193810C5FBF
:1017E0001F4F08C060817181072E000C880B990B78
:1017F0000E5F1F4FF32DFF763F2E97FF09C0909588
:101800008095709561957F4F8F4F9F4FF0683F2E69
:101810002AE030E0A3010E94320D882E861845C0D0
:10182000853731F4232D2F7EB22E2AE030E025C0FB
:10183000932D997FB92E8F36C1F018F4883579F041
:10184000B5C0803719F0883721F0B0C0E92FE061CA
:10185000BE2EB4FE0DC0FB2DF460BF2E09C034FEB9
:101860000AC0292F2660B22E06C028E030E005C04D
:1018700020E130E002C020E132E0F801B7FE07C00D
:1018800060817181828193810C5F1F4F06C06081EE
:10189000718180E090E00E5F1F4FA3010E94320D26
:1018A000882E8618FB2DFF773F2E36FE0DC0232D88
:1018B0002E7FA22E891458F434FE0BC032FC09C0CE
:1018C000832D8E7EA82E05C0B82CA32C03C0B82C67
:1018D00001C0B92CA4FE0FC0FE01E80DF11D8081EE
:1018E000803321F49A2D997EA92E09C0A2FE06C04C
:1018F000B394B39404C08A2D867809F0B394A3FC02
:1019000011C0A0FE06C0B21488F4280C922C9B18BB
:101910000EC0B21460F4B60180E290E00E94F60CB2
:10192000B394F7CFB21418F42B1802C0982C212CC2
:10193000A4FE10C0B60180E390E00E94F60CA2FE67
:1019400017C0A1FC03C088E790E002C088E590E0E2
:10195000B6010CC08A2D867859F0A1FE02C08BE238
:1019600001C080E2A7FC8DE2B60190E00E94F60C77
:10197000891438F4B60180E390E00E94F60C9A9442
:10198000F7CF8A94F301E80DF11D8081B60190E054
:101990000E94F60C8110F5CF222009F442CEB60148
:1019A00080E290E00E94F60C2A94F6CFF601868140
:1019B000978102C08FEF9FEF2B96E2E10C94AC0D64
:1019C000FC010590615070400110D8F7809590950A
:1019D0008E0F9F1F0895FC0161507040019001100F
:1019E000D8F7809590958E0F9F1F08950F931F93A2
:1019F000CF93DF93FB01238121FD03C08FEF9FEF86
:101A00002CC022FF16C046815781248135814217A0
:101A1000530744F4A081B1819D012F5F3F4F318373
:101A200020838C93268137812F5F3F4F3783268316
:101A300014C08B01EC01FB010084F185E02D0995B8
:101A4000892BE1F6D80116968D919C9117970196F6
:101A500017969C938E931697CE01DF91CF911F918D
:101A60000F910895FA01AA27283051F1203181F110
:101A7000E8946F936E7F6E5F7F4F8F4F9F4FAF4F96
:101A8000B1E03ED0B4E03CD0670F781F891F9A1FA9
:101A9000A11D680F791F8A1F911DA11D6A0F711D5D
:101AA000811D911DA11D20D009F468943F912AE069
:101AB000269F11243019305D3193DEF6CF01089551
:101AC000462F4770405D4193B3E00FD0C9F7F6CF82
:101AD000462F4F70405D4A3318F0495D31FD40524A
:101AE000419302D0A9F7EACFB4E0A69597958795E0
:101AF00077956795BA95C9F70097610571050895BF
:101B00009B01AC010A2E069457954795379527956A
:101B1000BA95C9F7620F731F841F951FA01D089502
:101B20002F923F924F925F926F927F928F929F92ED
:101B3000AF92BF92CF92DF92EF92FF920F931F93DB
:101B4000CF93DF93CDB7DEB7CA1BDB0B0FB6F8948C
:101B5000DEBF0FBECDBF09942A88398848885F84CC
:101B60006E847D848C849B84AA84B984C884DF803D
:101B7000EE80FD800C811B81AA81B981CE0FD11D21
:101B80000FB6F894DEBF0FBECDBFED010895F894F7
:021B9000FFCF85
:101B9200FF04030201010000000300000000290805
:101BA200610800007FA47F00EF1DE900FFAA550035
:101BB2000609060047616D652073636F72653A20FE
:101BC20025640A0000000008080880040204400896
:101BD200800000040204400804400220011010109A
:101BE2001000000220044008800440022004400843
:101BF200044040022004400804400220011010105A
:101C020010000000000000080808800402044002DE
:101C12000880000201044008800402200110101212
:101C22002000000220044008044040022004400832
:101C320004404002200440080440400220011010E9
:061C42001000000000008C
:00000001FF
